:100000000C9462000C948A000C948A000C948A0070
:100010000C948A000C948A000C948A000C948A0038
:100020000C948A000C948A000C948A000C948A0028
:100030000C948A000C948A000C948A000C948A0018
:100040000C9493020C948A000C9461020C943B0271
:100050000C948A000C948A000C948A000C948A00F8
:100060000C948A000C948A000000000025002800EF
:100070002B0000000000240027002A0000000000E0
:1000800023002600290004040404040404040202DA
:100090000202020203030303030301020408102007
:1000A0004080010204081020010204081020000012
:1000B0000008000201000003040700000000000027
:1000C0000000590411241FBECFEFD8E0DEBFCDBF22
:1000D00011E0A0E0B1E0E4EBF9E002C005900D9280
:1000E000A234B107D9F721E0A2E4B1E001C01D922A
:1000F000AC3FB207E1F710E0C2E6D0E004C02197C0
:10010000FE010E948604C136D107C9F70E94DD02B4
:100110000C94D8040C940000CF92DF92EF92FF92DF
:100120000F931F93CF93DF936C017A018B01C0E093
:10013000D0E0CE15DF0589F0D8016D918D01D60193
:10014000ED91FC910190F081E02DC6010995892B7C
:1001500011F47E0102C02196ECCFC701DF91CF914F
:100160001F910F91FF90EF90DF90CF900895FC01C9
:10017000918D828D981761F0828DDF01A80FB11DDE
:100180005D968C91928D9F5F9F73928F90E0089502
:100190008FEF9FEF0895FC01918D828D981731F0BC
:1001A000828DE80FF11D858D90E008958FEF9FEF10
:1001B0000895FC01918D228D892F90E0805C9F4FE6
:1001C000821B91098F73992708958FE591E00E9412
:1001D000D90021E0892B09F420E0822F0895FC0149
:1001E000848DDF01A80FB11DA35ABF4F2C91848DC0
:1001F00090E001968F739927848FA689B7892C93F5
:10020000A089B1898C9180648C93938D848D98138F
:1002100006C00288F389E02D80818F7D8083089558
:10022000EF92FF920F931F93CF93DF93EC0181E046
:10023000888F9B8D8C8D981305C0E889F989808102
:1002400085FD24C0F62E0B8D10E00F5F1F4F0F733E
:100250001127E02E8C8DE8120CC00FB607FCFACFE8
:10026000E889F989808185FFF5CFCE010E94EF00F2
:10027000F1CF8B8DFE01E80FF11DE35AFF4FF082A5
:100280000B8FEA89FB898081806207C0EE89FF8934
:100290006083E889F98980818064808381E090E0CF
:1002A000DF91CF911F910F91FF90EF900895CF9321
:1002B000DF93EC01888D8823C9F0EA89FB8980816E
:1002C00085FD05C0A889B9898C9186FD0FC00FB640
:1002D00007FCF5CF808185FFF2CFA889B9898C9181
:1002E00085FFEDCFCE010E94EF00E7CFDF91CF91E8
:1002F000089580E090E0892B29F00E94E5008111AB
:100300000C94000008958E3008F08E508770806441
:1003100080937C0080917A00806480937A00809141
:100320007A0086FDFCCF809178002091790090E0E2
:10033000922B08953FB7F89480914701909148011E
:10034000A0914901B0914A0126B5A89B05C02F3F55
:1003500019F00196A11DB11D3FBFBA2FA92F982FEB
:100360008827820F911DA11DB11DBC01CD0142E066
:10037000660F771F881F991F4A95D1F70895009738
:1003800069F0FC0101900020E9F73197AF01481BAB
:10039000590BBC018FE591E00C948C0080E090E05B
:1003A0000895CF93DF930E94BF01EC018AE191E0B1
:1003B0000E94BF018C0F9D1FDF91CF9108950C9477
:1003C000BF01CF92DF92EF92FF920F931F93CF93D3
:1003D000DF93CDB7DEB72A970FB6F894DEBF0FBE16
:1003E000CDBF8C0180910001909101019A83898396
:1003F000FE01339688E0DF011D928A95E9F7CE0170
:1004000001967C01BC0185E591E00E949C044AE0D4
:10041000B701C8010E94A304F70101900020E9F789
:100420000E2D0E1B0B5FA1F4B70185E591E00E9434
:1004300091042A960FB6F894DEBF0FBECDBFDF91B0
:10044000CF911F910F91FF90EF90DF90CF90089583
:10045000CC24C394D12C10E00C151D052CF36DE1B8
:1004600071E085E591E00E9491049FEFC91AD90AD5
:10047000F3CF0E948C041F920F920FB60F9211249B
:100480002F933F934F935F936F937F938F939F939C
:10049000AF93BF93EF93FF938FE591E00E94EF003E
:1004A000FF91EF91BF91AF919F918F917F916F914C
:1004B0005F914F913F912F910F900FBE0F901F9022
:1004C00018951F920F920FB60F9211242F938F93AE
:1004D0009F93EF93FF93E0916F01F0917001808102
:1004E000E0917501F091760182FD12C090818091BA
:1004F00078018F5F8F7320917901821751F0E0911D
:100500007801F0E0E15AFE4F958F8093780101C0A9
:100510008081FF91EF919F918F912F910F900FBE4E
:100520000F901F9018951F920F920FB60F921124E3
:100530002F933F938F939F93AF93BF9380914301EA
:1005400090914401A0914501B09146013091420142
:1005500023E0230F2D3720F40196A11DB11D05C006
:1005600026E8230F0296A11DB11D2093420180931E
:10057000430190934401A0934501B09346018091BB
:10058000470190914801A0914901B0914A0101961B
:10059000A11DB11D8093470190934801A09349018B
:1005A000B0934A01BF91AF919F918F913F912F914D
:1005B0000F900FBE0F901F901895789484B58260AD
:1005C00084BD84B5816084BD85B5826085BD85B5F7
:1005D000816085BD80916E00816080936E00109275
:1005E00081008091810082608093810080918100F0
:1005F0008160809381008091800081608093800081
:100600008091B10084608093B1008091B0008160DE
:100610008093B00080917A00846080937A0080910A
:100620007A00826080937A0080917A008160809362
:100630007A0080917A00806880937A001092C100DD
:10064000CEE9D0E0FE0124910AE810E0F80184919F
:100650008823C9F090E0880F991FFC01EE58FF4FE6
:10066000A591B49188599F4FFC01459154913FB792
:10067000F8949C91822F809598239C93FA01908105
:10068000892380833FBFE0916F01F091700182E088
:100690008083E0916B01F0916C011082E0916D011B
:1006A000F0916E018FEC808310927701E0917301DD
:1006B000F091740186E08083E0917101F091720104
:1006C000808180618083E0917101F091720180816D
:1006D00088608083E0917101F0917201808180686F
:1006E0008083E0917101F091720180818F7D808320
:1006F0008FE191E00E94D10180E391E00E94D1015D
:1007000042EBE42E40E0F42E8EE00E9483019093B1
:100710005401809353018FE00E9483019093520112
:1007200080935101F7019491FE012491F801849185
:100730008823A9F1992339F1933091F038F491305D
:10074000A9F0923001F594B59F7D12C0973091F0D9
:100750009830A1F09430B9F4909180009F7D03C04F
:10076000909180009F77909380000DC094B59F7703
:1007700094BD09C09091B0009F7703C09091B000E4
:100780009F7D9093B00090E0880F991F84589F4FF1
:10079000FC01A591B4918C91282381E009F480E0BB
:1007A0008170809350018091530190915401209168
:1007B0004E0130914F0182179307B1F090934F0192
:1007C00080934E010E94E10182E391E00E94DF01EB
:1007D00085E591E00E94DF018BE391E00E94DF015B
:1007E0008CE191E00E94D1018091510190915201E0
:1007F00020914C0130914D0182179307E1F0AC013B
:10080000421B530B42305105B0F090934D01809341
:100810004C010E94E10185E391E00E94DF0185E542
:1008200091E00E94DF018BE391E00E94DF018CE107
:1008300091E00E94D1018091500190914B01891764
:1008400079F080934B01882319F088E391E002C08E
:100850008DE391E00E94DF018CE191E00E94D101E3
:100860000E949A012B013C0184E6882E912CA12C38
:10087000B12C0E949A01DC01CB0184199509A609CB
:10088000B709883E9340A105B10558F051E0851A9B
:100890009108A108B10888EE480E83E0581E611C3B
:1008A000711C81149104A104B10419F70E9479010B
:1008B0002BCFEFE5F1E01382128288EE93E0A0E007
:1008C000B0E084839583A683B7838EE091E0918323
:1008D000808385EC90E09587848784EC90E097870F
:1008E000868780EC90E0918B808B81EC90E0938BFD
:1008F000828B82EC90E0958B848B86EC90E0978BDA
:10090000868B118E128E138E148E0895EE0FFF1F9C
:100910000590F491E02D099481E090E0F8940C9416
:10092000D804FB01DC010D900020E9F7119701903C
:100930000D920020E1F70895FB01DC0101900D927A
:100940000020E1F70895BB274A3031F4992322F4BF
:10095000BDE2909581959F4F0C94AF04BB27FB019E
:100960005527AA27880F991FAA1FA41710F0A41BA8
:1009700083955051B9F7A05DAA3308F0A95DA19302
:10098000009779F7B111B1931192CB010C94C8047F
:10099000DC01FC01672F71917723E1F7329704C0E6
:1009A0007C916D9370836291AE17BF07C8F3089571
:0409B000F894FFCFE9
:1009B4000000000000000000000000000000100122
:1009C4008C00D900B700CB0057010D0A003000415C
:1009D400647275696E6F2069732072656164790051
:1009E40020003C54003C50003C42483E003C424CF9
:0209F4003E00C3
:00000001FF
